{
  "_format": "hh-sol-artifact-1",
  "contractName": "SplitFactory",
  "sourceName": "contracts/SplitFactory.sol",
  "abi": [
    {
      "anonymous": false,
      "inputs": [
        {
          "indexed": true,
          "internalType": "address",
          "name": "owner",
          "type": "address"
        },
        {
          "indexed": false,
          "internalType": "address",
          "name": "splitterAddress",
          "type": "address"
        },
        {
          "indexed": false,
          "internalType": "address[]",
          "name": "recipients",
          "type": "address[]"
        },
        {
          "indexed": false,
          "internalType": "uint256[]",
          "name": "shares",
          "type": "uint256[]"
        },
        {
          "indexed": false,
          "internalType": "address",
          "name": "token",
          "type": "address"
        }
      ],
      "name": "SplitterCreated",
      "type": "event"
    },
    {
      "inputs": [
        {
          "internalType": "uint256",
          "name": "",
          "type": "uint256"
        }
      ],
      "name": "allSplitters",
      "outputs": [
        {
          "internalType": "address",
          "name": "",
          "type": "address"
        }
      ],
      "stateMutability": "view",
      "type": "function"
    },
    {
      "inputs": [
        {
          "internalType": "address[]",
          "name": "recipients",
          "type": "address[]"
        },
        {
          "internalType": "uint256[]",
          "name": "shares",
          "type": "uint256[]"
        },
        {
          "internalType": "address",
          "name": "token",
          "type": "address"
        }
      ],
      "name": "createSplitter",
      "outputs": [
        {
          "internalType": "address",
          "name": "",
          "type": "address"
        }
      ],
      "stateMutability": "nonpayable",
      "type": "function"
    },
    {
      "inputs": [],
      "name": "getAllSplitters",
      "outputs": [
        {
          "internalType": "address[]",
          "name": "",
          "type": "address[]"
        }
      ],
      "stateMutability": "view",
      "type": "function"
    },
    {
      "inputs": [
        {
          "internalType": "address",
          "name": "user",
          "type": "address"
        }
      ],
      "name": "getUserSplitters",
      "outputs": [
        {
          "internalType": "address[]",
          "name": "",
          "type": "address[]"
        }
      ],
      "stateMutability": "view",
      "type": "function"
    },
    {
      "inputs": [
        {
          "internalType": "address",
          "name": "",
          "type": "address"
        },
        {
          "internalType": "uint256",
          "name": "",
          "type": "uint256"
        }
      ],
      "name": "userSplitters",
      "outputs": [
        {
          "internalType": "address",
          "name": "",
          "type": "address"
        }
      ],
      "stateMutability": "view",
      "type": "function"
    }
  ],
  "bytecode": "0x608060405234801561001057600080fd5b50613a3a806100206000396000f3fe60806040523480156200001157600080fd5b50600436106200005e5760003560e01c80635bc85a5214620000635780635c8a5bee146200008557806372c6320c14620000bb578063fdb78caf14620000f1578063fe74ab361462000127575b600080fd5b6200006d6200015d565b6040516200007c919062000732565b60405180910390f35b620000a360048036038101906200009d91906200079b565b620001ed565b604051620000b2919062000732565b60405180910390f35b620000d96004803603810190620000d3919062000a53565b620002bc565b604051620000e8919062000afe565b60405180910390f35b6200010f600480360381019062000109919062000b1b565b62000593565b6040516200011e919062000afe565b60405180910390f35b6200014560048036038101906200013f919062000b4d565b620005d3565b60405162000154919062000afe565b60405180910390f35b60606000805480602002602001604051908101604052809291908181526020018280548015620001e357602002820191906000526020600020905b8160009054906101000a900473ffffffffffffffffffffffffffffffffffffffff1673ffffffffffffffffffffffffffffffffffffffff168152602001906001019080831162000198575b5050505050905090565b6060600160008373ffffffffffffffffffffffffffffffffffffffff1673ffffffffffffffffffffffffffffffffffffffff168152602001908152602001600020805480602002602001604051908101604052809291908181526020018280548015620002b057602002820191906000526020600020905b8160009054906101000a900473ffffffffffffffffffffffffffffffffffffffff1673ffffffffffffffffffffffffffffffffffffffff168152602001906001019080831162000265575b50505050509050919050565b6000825184511462000305576040517f08c379a0000000000000000000000000000000000000000000000000000000008152600401620002fc9062000bf5565b60405180910390fd5b60008451116200034c576040517f08c379a0000000000000000000000000000000000000000000000000000000008152600401620003439062000c67565b60405180910390fd5b6000805b84518110156200039d5784818151811062000370576200036f62000c89565b5b60200260200101518262000385919062000ce7565b91508080620003949062000d22565b91505062000350565b506127108114620003e5576040517f08c379a0000000000000000000000000000000000000000000000000000000008152600401620003dc9062000dbf565b60405180910390fd5b600085858533604051620003f99062000622565b62000408949392919062000eaf565b604051809103906000f08015801562000425573d6000803e3d6000fd5b50905060008190506000819080600181540180825580915050600190039060005260206000200160009091909190916101000a81548173ffffffffffffffffffffffffffffffffffffffff021916908373ffffffffffffffffffffffffffffffffffffffff160217905550600160003373ffffffffffffffffffffffffffffffffffffffff1673ffffffffffffffffffffffffffffffffffffffff168152602001908152602001600020819080600181540180825580915050600190039060005260206000200160009091909190916101000a81548173ffffffffffffffffffffffffffffffffffffffff021916908373ffffffffffffffffffffffffffffffffffffffff1602179055503373ffffffffffffffffffffffffffffffffffffffff167fb495d969ee9721f6e9087b4fba844d66e03a23069db8f2bec83fd6cdc52ddec8828989896040516200057e949392919062000f0a565b60405180910390a28093505050509392505050565b60008181548110620005a457600080fd5b906000526020600020016000915054906101000a900473ffffffffffffffffffffffffffffffffffffffff1681565b60016020528160005260406000208181548110620005f057600080fd5b906000526020600020016000915091509054906101000a900473ffffffffffffffffffffffffffffffffffffffff1681565b612a9f8062000f6683390190565b600081519050919050565b600082825260208201905092915050565b6000819050602082019050919050565b600073ffffffffffffffffffffffffffffffffffffffff82169050919050565b600062000689826200065c565b9050919050565b6200069b816200067c565b82525050565b6000620006af838362000690565b60208301905092915050565b6000602082019050919050565b6000620006d58262000630565b620006e181856200063b565b9350620006ee836200064c565b8060005b8381101562000725578151620007098882620006a1565b97506200071683620006bb565b925050600181019050620006f2565b5085935050505092915050565b600060208201905081810360008301526200074e8184620006c8565b905092915050565b6000604051905090565b600080fd5b600080fd5b62000775816200067c565b81146200078157600080fd5b50565b60008135905062000795816200076a565b92915050565b600060208284031215620007b457620007b362000760565b5b6000620007c48482850162000784565b91505092915050565b600080fd5b6000601f19601f8301169050919050565b7f4e487b7100000000000000000000000000000000000000000000000000000000600052604160045260246000fd5b6200081d82620007d2565b810181811067ffffffffffffffff821117156200083f576200083e620007e3565b5b80604052505050565b60006200085462000756565b905062000862828262000812565b919050565b600067ffffffffffffffff821115620008855762000884620007e3565b5b602082029050602081019050919050565b600080fd5b6000620008b2620008ac8462000867565b62000848565b90508083825260208201905060208402830185811115620008d857620008d762000896565b5b835b81811015620009055780620008f0888262000784565b845260208401935050602081019050620008da565b5050509392505050565b600082601f830112620009275762000926620007cd565b5b8135620009398482602086016200089b565b91505092915050565b600067ffffffffffffffff82111562000960576200095f620007e3565b5b602082029050602081019050919050565b6000819050919050565b620009868162000971565b81146200099257600080fd5b50565b600081359050620009a6816200097b565b92915050565b6000620009c3620009bd8462000942565b62000848565b90508083825260208201905060208402830185811115620009e957620009e862000896565b5b835b8181101562000a16578062000a01888262000995565b845260208401935050602081019050620009eb565b5050509392505050565b600082601f83011262000a385762000a37620007cd565b5b813562000a4a848260208601620009ac565b91505092915050565b60008060006060848603121562000a6f5762000a6e62000760565b5b600084013567ffffffffffffffff81111562000a905762000a8f62000765565b5b62000a9e868287016200090f565b935050602084013567ffffffffffffffff81111562000ac25762000ac162000765565b5b62000ad08682870162000a20565b925050604062000ae38682870162000784565b9150509250925092565b62000af8816200067c565b82525050565b600060208201905062000b15600083018462000aed565b92915050565b60006020828403121562000b345762000b3362000760565b5b600062000b448482850162000995565b91505092915050565b6000806040838503121562000b675762000b6662000760565b5b600062000b778582860162000784565b925050602062000b8a8582860162000995565b9150509250929050565b600082825260208201905092915050565b7f417272617973206c656e677468206d69736d6174636800000000000000000000600082015250565b600062000bdd60168362000b94565b915062000bea8262000ba5565b602082019050919050565b6000602082019050818103600083015262000c108162000bce565b9050919050565b7f4e6f20726563697069656e747300000000000000000000000000000000000000600082015250565b600062000c4f600d8362000b94565b915062000c5c8262000c17565b602082019050919050565b6000602082019050818103600083015262000c828162000c40565b9050919050565b7f4e487b7100000000000000000000000000000000000000000000000000000000600052603260045260246000fd5b7f4e487b7100000000000000000000000000000000000000000000000000000000600052601160045260246000fd5b600062000cf48262000971565b915062000d018362000971565b925082820190508082111562000d1c5762000d1b62000cb8565b5b92915050565b600062000d2f8262000971565b91507fffffffffffffffffffffffffffffffffffffffffffffffffffffffffffffffff820362000d645762000d6362000cb8565b5b600182019050919050565b7f536861726573206d7573742073756d20746f2031303030302028313030252900600082015250565b600062000da7601f8362000b94565b915062000db48262000d6f565b602082019050919050565b6000602082019050818103600083015262000dda8162000d98565b9050919050565b600081519050919050565b600082825260208201905092915050565b6000819050602082019050919050565b62000e188162000971565b82525050565b600062000e2c838362000e0d565b60208301905092915050565b6000602082019050919050565b600062000e528262000de1565b62000e5e818562000dec565b935062000e6b8362000dfd565b8060005b8381101562000ea257815162000e86888262000e1e565b975062000e938362000e38565b92505060018101905062000e6f565b5085935050505092915050565b6000608082019050818103600083015262000ecb8187620006c8565b9050818103602083015262000ee1818662000e45565b905062000ef2604083018562000aed565b62000f01606083018462000aed565b95945050505050565b600060808201905062000f21600083018762000aed565b818103602083015262000f358186620006c8565b9050818103604083015262000f4b818562000e45565b905062000f5c606083018462000aed565b9594505050505056fe60806040526001600360146101000a81548160ff0219169083151502179055503480156200002c57600080fd5b5060405162002a9f38038062002a9f83398181016040528101906200005291906200069a565b825184511462000099576040517f08c379a00000000000000000000000000000000000000000000000000000000081526004016200009090620007ab565b60405180910390fd5b6000845111620000e0576040517f08c379a0000000000000000000000000000000000000000000000000000000008152600401620000d7906200081d565b60405180910390fd5b6000805b8451811015620001945760008582815181106200010657620001056200083f565b5b60200260200101511162000151576040517f08c379a00000000000000000000000000000000000000000000000000000000081526004016200014890620008be565b60405180910390fd5b8481815181106200016757620001666200083f565b5b6020026020010151826200017c91906200090f565b915080806200018b906200094a565b915050620000e4565b506127108114620001dc576040517f08c379a0000000000000000000000000000000000000000000000000000000008152600401620001d390620009e7565b60405180910390fd5b8460009080519060200190620001f49291906200029b565b5083600190805190602001906200020d9291906200032a565b5082600260006101000a81548173ffffffffffffffffffffffffffffffffffffffff021916908373ffffffffffffffffffffffffffffffffffffffff16021790555081600360006101000a81548173ffffffffffffffffffffffffffffffffffffffff021916908373ffffffffffffffffffffffffffffffffffffffff160217905550505050505062000a09565b82805482825590600052602060002090810192821562000317579160200282015b82811115620003165782518260006101000a81548173ffffffffffffffffffffffffffffffffffffffff021916908373ffffffffffffffffffffffffffffffffffffffff16021790555091602001919060010190620002bc565b5b5090506200032691906200037c565b5090565b82805482825590600052602060002090810192821562000369579160200282015b82811115620003685782518255916020019190600101906200034b565b5b5090506200037891906200037c565b5090565b5b80821115620003975760008160009055506001016200037d565b5090565b6000604051905090565b600080fd5b600080fd5b600080fd5b6000601f19601f8301169050919050565b7f4e487b7100000000000000000000000000000000000000000000000000000000600052604160045260246000fd5b620003ff82620003b4565b810181811067ffffffffffffffff82111715620004215762000420620003c5565b5b80604052505050565b6000620004366200039b565b9050620004448282620003f4565b919050565b600067ffffffffffffffff821115620004675762000466620003c5565b5b602082029050602081019050919050565b600080fd5b600073ffffffffffffffffffffffffffffffffffffffff82169050919050565b6000620004aa826200047d565b9050919050565b620004bc816200049d565b8114620004c857600080fd5b50565b600081519050620004dc81620004b1565b92915050565b6000620004f9620004f38462000449565b6200042a565b905080838252602082019050602084028301858111156200051f576200051e62000478565b5b835b818110156200054c5780620005378882620004cb565b84526020840193505060208101905062000521565b5050509392505050565b600082601f8301126200056e576200056d620003af565b5b815162000580848260208601620004e2565b91505092915050565b600067ffffffffffffffff821115620005a757620005a6620003c5565b5b602082029050602081019050919050565b6000819050919050565b620005cd81620005b8565b8114620005d957600080fd5b50565b600081519050620005ed81620005c2565b92915050565b60006200060a620006048462000589565b6200042a565b9050808382526020820190506020840283018581111562000630576200062f62000478565b5b835b818110156200065d5780620006488882620005dc565b84526020840193505060208101905062000632565b5050509392505050565b600082601f8301126200067f576200067e620003af565b5b815162000691848260208601620005f3565b91505092915050565b60008060008060808587031215620006b757620006b6620003a5565b5b600085015167ffffffffffffffff811115620006d857620006d7620003aa565b5b620006e68782880162000556565b945050602085015167ffffffffffffffff8111156200070a5762000709620003aa565b5b620007188782880162000667565b93505060406200072b87828801620004cb565b92505060606200073e87828801620004cb565b91505092959194509250565b600082825260208201905092915050565b7f417272617973206c656e677468206d69736d6174636800000000000000000000600082015250565b6000620007936016836200074a565b9150620007a0826200075b565b602082019050919050565b60006020820190508181036000830152620007c68162000784565b9050919050565b7f4e6f20726563697069656e747300000000000000000000000000000000000000600082015250565b600062000805600d836200074a565b91506200081282620007cd565b602082019050919050565b600060208201905081810360008301526200083881620007f6565b9050919050565b7f4e487b7100000000000000000000000000000000000000000000000000000000600052603260045260246000fd5b7f53686172652063616e6e6f74206265207a65726f000000000000000000000000600082015250565b6000620008a66014836200074a565b9150620008b3826200086e565b602082019050919050565b60006020820190508181036000830152620008d98162000897565b9050919050565b7f4e487b7100000000000000000000000000000000000000000000000000000000600052601160045260246000fd5b60006200091c82620005b8565b91506200092983620005b8565b9250828201905080821115620009445762000943620008e0565b5b92915050565b60006200095782620005b8565b91507fffffffffffffffffffffffffffffffffffffffffffffffffffffffffffffffff82036200098c576200098b620008e0565b5b600182019050919050565b7f536861726573206d7573742073756d20746f2031303030300000000000000000600082015250565b6000620009cf6018836200074a565b9150620009dc8262000997565b602082019050919050565b6000602082019050818103600083015262000a0281620009c0565b9050919050565b6120868062000a196000396000f3fe608060405234801561001057600080fd5b50600436106100ea5760003560e01c806391c05b0b1161008c578063db2e21bc11610066578063db2e21bc14610215578063e5bc026c1461021f578063efca2eed1461023b578063fc0c546a14610259576100ea565b806391c05b0b146101ab578063c3f909d4146101c7578063d1bc76a1146101e5576100ea565b806351b42b00116100c857806351b42b00146101355780635695fa581461013f57806357a858fc1461015d5780638da5cb5b1461018d576100ea565b806302fb0c5e146100ef5780630f15f4c01461010d57806312065fe014610117575b600080fd5b6100f7610277565b60405161010491906111b0565b60405180910390f35b61011561028a565b005b61011f610337565b60405161012c91906111e4565b60405180910390f35b61013d6103da565b005b610147610487565b60405161015491906111e4565b60405180910390f35b6101776004803603810190610172919061123f565b610491565b60405161018491906111e4565b60405180910390f35b6101956104b5565b6040516101a291906112ad565b60405180910390f35b6101c560048036038101906101c0919061123f565b6104db565b005b6101cf6108fe565b6040516101dc91906114d0565b60405180910390f35b6101ff60048036038101906101fa919061123f565b610a89565b60405161020c91906112ad565b60405180910390f35b61021d610ac8565b005b6102396004803603810190610234919061173a565b610daa565b005b610243611018565b60405161025091906111e4565b60405180910390f35b61026161101e565b60405161026e91906112ad565b60405180910390f35b600360149054906101000a900460ff1681565b600360009054906101000a900473ffffffffffffffffffffffffffffffffffffffff1673ffffffffffffffffffffffffffffffffffffffff163373ffffffffffffffffffffffffffffffffffffffff161461031a576040517f08c379a00000000000000000000000000000000000000000000000000000000081526004016103119061180f565b60405180910390fd5b6001600360146101000a81548160ff021916908315150217905550565b6000600260009054906101000a900473ffffffffffffffffffffffffffffffffffffffff1673ffffffffffffffffffffffffffffffffffffffff166370a08231306040518263ffffffff1660e01b815260040161039491906112ad565b602060405180830381865afa1580156103b1573d6000803e3d6000fd5b505050506040513d601f19601f820116820180604052508101906103d59190611844565b905090565b600360009054906101000a900473ffffffffffffffffffffffffffffffffffffffff1673ffffffffffffffffffffffffffffffffffffffff163373ffffffffffffffffffffffffffffffffffffffff161461046a576040517f08c379a00000000000000000000000000000000000000000000000000000000081526004016104619061180f565b60405180910390fd5b6000600360146101000a81548160ff021916908315150217905550565b6000600454905090565b600181815481106104a157600080fd5b906000526020600020016000915090505481565b600360009054906101000a900473ffffffffffffffffffffffffffffffffffffffff1681565b600360149054906101000a900460ff1661052a576040517f08c379a0000000000000000000000000000000000000000000000000000000008152600401610521906118bd565b60405180910390fd5b6000811161056d576040517f08c379a000000000000000000000000000000000000000000000000000000000815260040161056490611929565b60405180910390fd5b6000600260009054906101000a900473ffffffffffffffffffffffffffffffffffffffff1690508073ffffffffffffffffffffffffffffffffffffffff166323b872dd3330856040518463ffffffff1660e01b81526004016105d193929190611949565b6020604051808303816000875af11580156105f0573d6000803e3d6000fd5b505050506040513d601f19601f8201168201806040525081019061061491906119ac565b610653576040517f08c379a000000000000000000000000000000000000000000000000000000000815260040161064a90611a25565b60405180910390fd5b3373ffffffffffffffffffffffffffffffffffffffff167fad9df62a81fe6be2a989b7ab92b1322b9405ab1ecf6e3b204539448002d6cf6983600260009054906101000a900473ffffffffffffffffffffffffffffffffffffffff166040516106bd929190611a45565b60405180910390a2600082905060005b6000805490508110156108df576000612710600183815481106106f3576106f2611a6e565b5b9060005260206000200154866107099190611acc565b6107139190611b3d565b905060016000805490506107279190611b6e565b820361073557829050610744565b80836107419190611b6e565b92505b8373ffffffffffffffffffffffffffffffffffffffff1663a9059cbb6000848154811061077457610773611a6e565b5b9060005260206000200160009054906101000a900473ffffffffffffffffffffffffffffffffffffffff16836040518363ffffffff1660e01b81526004016107bd929190611ba2565b6020604051808303816000875af11580156107dc573d6000803e3d6000fd5b505050506040513d601f19601f8201168201806040525081019061080091906119ac565b61083f576040517f08c379a000000000000000000000000000000000000000000000000000000000815260040161083690611c17565b60405180910390fd5b6000828154811061085357610852611a6e565b5b9060005260206000200160009054906101000a900473ffffffffffffffffffffffffffffffffffffffff1673ffffffffffffffffffffffffffffffffffffffff167fb649c98f58055c520df0dcb5709eff2e931217ff2fb1e21376130d31bbb1c0af826040516108c391906111e4565b60405180910390a25080806108d790611c37565b9150506106cd565b5082600460008282546108f29190611c7f565b92505081905550505050565b610906611044565b6040518060a00160405280600080548060200260200160405190810160405280929190818152602001828054801561099357602002820191906000526020600020905b8160009054906101000a900473ffffffffffffffffffffffffffffffffffffffff1673ffffffffffffffffffffffffffffffffffffffff1681526020019060010190808311610949575b5050505050815260200160018054806020026020016040519081016040528092919081815260200182805480156109e957602002820191906000526020600020905b8154815260200190600101908083116109d5575b50505050508152602001600260009054906101000a900473ffffffffffffffffffffffffffffffffffffffff1673ffffffffffffffffffffffffffffffffffffffff168152602001600360009054906101000a900473ffffffffffffffffffffffffffffffffffffffff1673ffffffffffffffffffffffffffffffffffffffff168152602001600360149054906101000a900460ff161515815250905090565b60008181548110610a9957600080fd5b906000526020600020016000915054906101000a900473ffffffffffffffffffffffffffffffffffffffff1681565b600360009054906101000a900473ffffffffffffffffffffffffffffffffffffffff1673ffffffffffffffffffffffffffffffffffffffff163373ffffffffffffffffffffffffffffffffffffffff1614610b58576040517f08c379a0000000000000000000000000000000000000000000000000000000008152600401610b4f9061180f565b60405180910390fd5b600360149054906101000a900460ff1615610ba8576040517f08c379a0000000000000000000000000000000000000000000000000000000008152600401610b9f90611cff565b60405180910390fd5b6000600260009054906101000a900473ffffffffffffffffffffffffffffffffffffffff16905060008173ffffffffffffffffffffffffffffffffffffffff166370a08231306040518263ffffffff1660e01b8152600401610c0a91906112ad565b602060405180830381865afa158015610c27573d6000803e3d6000fd5b505050506040513d601f19601f82011682018060405250810190610c4b9190611844565b90506000811115610da6578173ffffffffffffffffffffffffffffffffffffffff1663a9059cbb600360009054906101000a900473ffffffffffffffffffffffffffffffffffffffff16836040518363ffffffff1660e01b8152600401610cb3929190611ba2565b6020604051808303816000875af1158015610cd2573d6000803e3d6000fd5b505050506040513d601f19601f82011682018060405250810190610cf691906119ac565b610d35576040517f08c379a0000000000000000000000000000000000000000000000000000000008152600401610d2c90611d6b565b60405180910390fd5b600360009054906101000a900473ffffffffffffffffffffffffffffffffffffffff1673ffffffffffffffffffffffffffffffffffffffff167f2e39961a70a10f4d46383948095ac2752b3ee642a7c76aa827410aaff08c2e5182604051610d9d91906111e4565b60405180910390a25b5050565b600360009054906101000a900473ffffffffffffffffffffffffffffffffffffffff1673ffffffffffffffffffffffffffffffffffffffff163373ffffffffffffffffffffffffffffffffffffffff1614610e3a576040517f08c379a0000000000000000000000000000000000000000000000000000000008152600401610e319061180f565b60405180910390fd5b8051825114610e7e576040517f08c379a0000000000000000000000000000000000000000000000000000000008152600401610e7590611dd7565b60405180910390fd5b6000825111610ec2576040517f08c379a0000000000000000000000000000000000000000000000000000000008152600401610eb990611e43565b60405180910390fd5b6000805b8251811015610f67576000838281518110610ee457610ee3611a6e565b5b602002602001015111610f2c576040517f08c379a0000000000000000000000000000000000000000000000000000000008152600401610f2390611eaf565b60405180910390fd5b828181518110610f3f57610f3e611a6e565b5b602002602001015182610f529190611c7f565b91508080610f5f90611c37565b915050610ec6565b506127108114610fac576040517f08c379a0000000000000000000000000000000000000000000000000000000008152600401610fa390611f1b565b60405180910390fd5b8260009080519060200190610fc29291906110a1565b508160019080519060200190610fd992919061112b565b507f0563e3bb73775f53f90c3419d04dcdc3fdad01453b5211d23f6dfadda29efb88838360405161100b929190612019565b60405180910390a1505050565b60045481565b600260009054906101000a900473ffffffffffffffffffffffffffffffffffffffff1681565b6040518060a001604052806060815260200160608152602001600073ffffffffffffffffffffffffffffffffffffffff168152602001600073ffffffffffffffffffffffffffffffffffffffff1681526020016000151581525090565b82805482825590600052602060002090810192821561111a579160200282015b828111156111195782518260006101000a81548173ffffffffffffffffffffffffffffffffffffffff021916908373ffffffffffffffffffffffffffffffffffffffff160217905550916020019190600101906110c1565b5b5090506111279190611178565b5090565b828054828255906000526020600020908101928215611167579160200282015b8281111561116657825182559160200191906001019061114b565b5b5090506111749190611178565b5090565b5b80821115611191576000816000905550600101611179565b5090565b60008115159050919050565b6111aa81611195565b82525050565b60006020820190506111c560008301846111a1565b92915050565b6000819050919050565b6111de816111cb565b82525050565b60006020820190506111f960008301846111d5565b92915050565b6000604051905090565b600080fd5b600080fd5b61121c816111cb565b811461122757600080fd5b50565b60008135905061123981611213565b92915050565b60006020828403121561125557611254611209565b5b60006112638482850161122a565b91505092915050565b600073ffffffffffffffffffffffffffffffffffffffff82169050919050565b60006112978261126c565b9050919050565b6112a78161128c565b82525050565b60006020820190506112c2600083018461129e565b92915050565b600081519050919050565b600082825260208201905092915050565b6000819050602082019050919050565b6112fd8161128c565b82525050565b600061130f83836112f4565b60208301905092915050565b6000602082019050919050565b6000611333826112c8565b61133d81856112d3565b9350611348836112e4565b8060005b838110156113795781516113608882611303565b975061136b8361131b565b92505060018101905061134c565b5085935050505092915050565b600081519050919050565b600082825260208201905092915050565b6000819050602082019050919050565b6113bb816111cb565b82525050565b60006113cd83836113b2565b60208301905092915050565b6000602082019050919050565b60006113f182611386565b6113fb8185611391565b9350611406836113a2565b8060005b8381101561143757815161141e88826113c1565b9750611429836113d9565b92505060018101905061140a565b5085935050505092915050565b61144d81611195565b82525050565b600060a08301600083015184820360008601526114708282611328565b9150506020830151848203602086015261148a82826113e6565b915050604083015161149f60408601826112f4565b5060608301516114b260608601826112f4565b5060808301516114c56080860182611444565b508091505092915050565b600060208201905081810360008301526114ea8184611453565b905092915050565b600080fd5b6000601f19601f8301169050919050565b7f4e487b7100000000000000000000000000000000000000000000000000000000600052604160045260246000fd5b611540826114f7565b810181811067ffffffffffffffff8211171561155f5761155e611508565b5b80604052505050565b60006115726111ff565b905061157e8282611537565b919050565b600067ffffffffffffffff82111561159e5761159d611508565b5b602082029050602081019050919050565b600080fd5b6115bd8161128c565b81146115c857600080fd5b50565b6000813590506115da816115b4565b92915050565b60006115f36115ee84611583565b611568565b90508083825260208201905060208402830185811115611616576116156115af565b5b835b8181101561163f578061162b88826115cb565b845260208401935050602081019050611618565b5050509392505050565b600082601f83011261165e5761165d6114f2565b5b813561166e8482602086016115e0565b91505092915050565b600067ffffffffffffffff82111561169257611691611508565b5b602082029050602081019050919050565b60006116b66116b184611677565b611568565b905080838252602082019050602084028301858111156116d9576116d86115af565b5b835b8181101561170257806116ee888261122a565b8452602084019350506020810190506116db565b5050509392505050565b600082601f830112611721576117206114f2565b5b81356117318482602086016116a3565b91505092915050565b6000806040838503121561175157611750611209565b5b600083013567ffffffffffffffff81111561176f5761176e61120e565b5b61177b85828601611649565b925050602083013567ffffffffffffffff81111561179c5761179b61120e565b5b6117a88582860161170c565b9150509250929050565b600082825260208201905092915050565b7f4f6e6c79206f776e657200000000000000000000000000000000000000000000600082015250565b60006117f9600a836117b2565b9150611804826117c3565b602082019050919050565b60006020820190508181036000830152611828816117ec565b9050919050565b60008151905061183e81611213565b92915050565b60006020828403121561185a57611859611209565b5b60006118688482850161182f565b91505092915050565b7f53706c6974746572206973206e6f742061637469766500000000000000000000600082015250565b60006118a76016836117b2565b91506118b282611871565b602082019050919050565b600060208201905081810360008301526118d68161189a565b9050919050565b7f416d6f756e74206d7573742062652067726561746572207468616e2030000000600082015250565b6000611913601d836117b2565b915061191e826118dd565b602082019050919050565b6000602082019050818103600083015261194281611906565b9050919050565b600060608201905061195e600083018661129e565b61196b602083018561129e565b61197860408301846111d5565b949350505050565b61198981611195565b811461199457600080fd5b50565b6000815190506119a681611980565b92915050565b6000602082840312156119c2576119c1611209565b5b60006119d084828501611997565b91505092915050565b7f5472616e73666572206661696c65640000000000000000000000000000000000600082015250565b6000611a0f600f836117b2565b9150611a1a826119d9565b602082019050919050565b60006020820190508181036000830152611a3e81611a02565b9050919050565b6000604082019050611a5a60008301856111d5565b611a67602083018461129e565b9392505050565b7f4e487b7100000000000000000000000000000000000000000000000000000000600052603260045260246000fd5b7f4e487b7100000000000000000000000000000000000000000000000000000000600052601160045260246000fd5b6000611ad7826111cb565b9150611ae2836111cb565b9250828202611af0816111cb565b91508282048414831517611b0757611b06611a9d565b5b5092915050565b7f4e487b7100000000000000000000000000000000000000000000000000000000600052601260045260246000fd5b6000611b48826111cb565b9150611b53836111cb565b925082611b6357611b62611b0e565b5b828204905092915050565b6000611b79826111cb565b9150611b84836111cb565b9250828203905081811115611b9c57611b9b611a9d565b5b92915050565b6000604082019050611bb7600083018561129e565b611bc460208301846111d5565b9392505050565b7f5472616e7366657220746f20726563697069656e74206661696c656400000000600082015250565b6000611c01601c836117b2565b9150611c0c82611bcb565b602082019050919050565b60006020820190508181036000830152611c3081611bf4565b9050919050565b6000611c42826111cb565b91507fffffffffffffffffffffffffffffffffffffffffffffffffffffffffffffffff8203611c7457611c73611a9d565b5b600182019050919050565b6000611c8a826111cb565b9150611c95836111cb565b9250828201905080821115611cad57611cac611a9d565b5b92915050565b7f4d75737420646561637469766174652066697273740000000000000000000000600082015250565b6000611ce96015836117b2565b9150611cf482611cb3565b602082019050919050565b60006020820190508181036000830152611d1881611cdc565b9050919050565b7f456d657267656e6379207769746864726177616c206661696c65640000000000600082015250565b6000611d55601b836117b2565b9150611d6082611d1f565b602082019050919050565b60006020820190508181036000830152611d8481611d48565b9050919050565b7f417272617973206c656e677468206d69736d6174636800000000000000000000600082015250565b6000611dc16016836117b2565b9150611dcc82611d8b565b602082019050919050565b60006020820190508181036000830152611df081611db4565b9050919050565b7f4e6f20726563697069656e747300000000000000000000000000000000000000600082015250565b6000611e2d600d836117b2565b9150611e3882611df7565b602082019050919050565b60006020820190508181036000830152611e5c81611e20565b9050919050565b7f53686172652063616e6e6f74206265207a65726f000000000000000000000000600082015250565b6000611e996014836117b2565b9150611ea482611e63565b602082019050919050565b60006020820190508181036000830152611ec881611e8c565b9050919050565b7f536861726573206d7573742073756d20746f2031303030300000000000000000600082015250565b6000611f056018836117b2565b9150611f1082611ecf565b602082019050919050565b60006020820190508181036000830152611f3481611ef8565b9050919050565b600082825260208201905092915050565b6000611f57826112c8565b611f618185611f3b565b9350611f6c836112e4565b8060005b83811015611f9d578151611f848882611303565b9750611f8f8361131b565b925050600181019050611f70565b5085935050505092915050565b600082825260208201905092915050565b6000611fc682611386565b611fd08185611faa565b9350611fdb836113a2565b8060005b8381101561200c578151611ff388826113c1565b9750611ffe836113d9565b925050600181019050611fdf565b5085935050505092915050565b600060408201905081810360008301526120338185611f4c565b905081810360208301526120478184611fbb565b9050939250505056fea2646970667358221220ae2a46a4bf8154397f47b5978b6100e736ed8b6ca8766227ae94272784a9442564736f6c63430008130033a2646970667358221220696564bcdb658c0f452771ddaef498430096daabf2900f1858fe83685fde8d2464736f6c63430008130033",
  "linkReferences": {},
  "deployedLinkReferences": {}
}