{
  "_format": "hh-sol-artifact-1",
  "contractName": "Treasury",
  "sourceName": "contracts/Treasury.sol",
  "abi": [
    {
      "inputs": [],
      "stateMutability": "nonpayable",
      "type": "constructor"
    },
    {
      "anonymous": false,
      "inputs": [
        {
          "indexed": true,
          "internalType": "address",
          "name": "token",
          "type": "address"
        },
        {
          "indexed": false,
          "internalType": "uint256",
          "name": "totalAmount",
          "type": "uint256"
        },
        {
          "indexed": false,
          "internalType": "uint256",
          "name": "recipientCount",
          "type": "uint256"
        }
      ],
      "name": "BatchDistribution",
      "type": "event"
    },
    {
      "anonymous": false,
      "inputs": [
        {
          "indexed": true,
          "internalType": "address",
          "name": "from",
          "type": "address"
        },
        {
          "indexed": false,
          "internalType": "address",
          "name": "token",
          "type": "address"
        },
        {
          "indexed": false,
          "internalType": "uint256",
          "name": "amount",
          "type": "uint256"
        }
      ],
      "name": "FundsDeposited",
      "type": "event"
    },
    {
      "anonymous": false,
      "inputs": [
        {
          "indexed": true,
          "internalType": "address",
          "name": "to",
          "type": "address"
        },
        {
          "indexed": false,
          "internalType": "address",
          "name": "token",
          "type": "address"
        },
        {
          "indexed": false,
          "internalType": "uint256",
          "name": "amount",
          "type": "uint256"
        }
      ],
      "name": "FundsWithdrawn",
      "type": "event"
    },
    {
      "inputs": [
        {
          "internalType": "address",
          "name": "",
          "type": "address"
        }
      ],
      "name": "balances",
      "outputs": [
        {
          "internalType": "uint256",
          "name": "",
          "type": "uint256"
        }
      ],
      "stateMutability": "view",
      "type": "function"
    },
    {
      "inputs": [
        {
          "internalType": "address",
          "name": "token",
          "type": "address"
        },
        {
          "internalType": "address[]",
          "name": "recipients",
          "type": "address[]"
        },
        {
          "internalType": "uint256[]",
          "name": "amounts",
          "type": "uint256[]"
        }
      ],
      "name": "batchDistribute",
      "outputs": [],
      "stateMutability": "nonpayable",
      "type": "function"
    },
    {
      "inputs": [
        {
          "internalType": "address",
          "name": "token",
          "type": "address"
        },
        {
          "internalType": "uint256",
          "name": "amount",
          "type": "uint256"
        }
      ],
      "name": "deposit",
      "outputs": [],
      "stateMutability": "nonpayable",
      "type": "function"
    },
    {
      "inputs": [],
      "name": "getSupportedTokens",
      "outputs": [
        {
          "internalType": "address[]",
          "name": "",
          "type": "address[]"
        }
      ],
      "stateMutability": "view",
      "type": "function"
    },
    {
      "inputs": [
        {
          "internalType": "address",
          "name": "token",
          "type": "address"
        }
      ],
      "name": "getTokenBalance",
      "outputs": [
        {
          "internalType": "uint256",
          "name": "",
          "type": "uint256"
        }
      ],
      "stateMutability": "view",
      "type": "function"
    },
    {
      "inputs": [],
      "name": "owner",
      "outputs": [
        {
          "internalType": "address",
          "name": "",
          "type": "address"
        }
      ],
      "stateMutability": "view",
      "type": "function"
    },
    {
      "inputs": [
        {
          "internalType": "uint256",
          "name": "",
          "type": "uint256"
        }
      ],
      "name": "supportedTokens",
      "outputs": [
        {
          "internalType": "address",
          "name": "",
          "type": "address"
        }
      ],
      "stateMutability": "view",
      "type": "function"
    },
    {
      "inputs": [
        {
          "internalType": "address",
          "name": "token",
          "type": "address"
        },
        {
          "internalType": "uint256",
          "name": "amount",
          "type": "uint256"
        }
      ],
      "name": "withdraw",
      "outputs": [],
      "stateMutability": "nonpayable",
      "type": "function"
    }
  ],
  "bytecode": "0x608060405234801561001057600080fd5b50336000806101000a81548173ffffffffffffffffffffffffffffffffffffffff021916908373ffffffffffffffffffffffffffffffffffffffff1602179055506114c7806100606000396000f3fe608060405234801561001057600080fd5b50600436106100885760003560e01c80639745a8fb1161005b5780639745a8fb14610127578063c625562614610143578063d3c7c2c714610173578063f3fef3a31461019157610088565b806327e235e31461008d5780633aecd0e3146100bd57806347e7ef24146100ed5780638da5cb5b14610109575b600080fd5b6100a760048036038101906100a29190610bbd565b6101ad565b6040516100b49190610c03565b60405180910390f35b6100d760048036038101906100d29190610bbd565b6101c5565b6040516100e49190610c03565b60405180910390f35b61010760048036038101906101029190610c4a565b61020e565b005b610111610442565b60405161011e9190610c99565b60405180910390f35b610141600480360381019061013c9190610ed0565b610466565b005b61015d60048036038101906101589190610f5b565b610805565b60405161016a9190610c99565b60405180910390f35b61017b610844565b6040516101889190611046565b60405180910390f35b6101ab60048036038101906101a69190610c4a565b6108d2565b005b60016020528060005260406000206000915090505481565b6000600160008373ffffffffffffffffffffffffffffffffffffffff1673ffffffffffffffffffffffffffffffffffffffff168152602001908152602001600020549050919050565b8173ffffffffffffffffffffffffffffffffffffffff166323b872dd3330846040518463ffffffff1660e01b815260040161024b93929190611068565b6020604051808303816000875af115801561026a573d6000803e3d6000fd5b505050506040513d601f19601f8201168201806040525081019061028e91906110d7565b5080600160008473ffffffffffffffffffffffffffffffffffffffff1673ffffffffffffffffffffffffffffffffffffffff16815260200190815260200160002060008282546102de9190611133565b925050819055506000805b600280549050811015610383578373ffffffffffffffffffffffffffffffffffffffff166002828154811061032157610320611167565b5b9060005260206000200160009054906101000a900473ffffffffffffffffffffffffffffffffffffffff1673ffffffffffffffffffffffffffffffffffffffff16036103705760019150610383565b808061037b90611196565b9150506102e9565b50806103ed576002839080600181540180825580915050600190039060005260206000200160009091909190916101000a81548173ffffffffffffffffffffffffffffffffffffffff021916908373ffffffffffffffffffffffffffffffffffffffff1602179055505b3373ffffffffffffffffffffffffffffffffffffffff167ff0d0e99cae184d0187b093b48894117462462379674a6e11d89c3fbb618e96b084846040516104359291906111de565b60405180910390a2505050565b60008054906101000a900473ffffffffffffffffffffffffffffffffffffffff1681565b60008054906101000a900473ffffffffffffffffffffffffffffffffffffffff1673ffffffffffffffffffffffffffffffffffffffff163373ffffffffffffffffffffffffffffffffffffffff16146104f4576040517f08c379a00000000000000000000000000000000000000000000000000000000081526004016104eb90611264565b60405180910390fd5b8051825114610538576040517f08c379a000000000000000000000000000000000000000000000000000000000815260040161052f906112d0565b60405180910390fd5b6000600160008573ffffffffffffffffffffffffffffffffffffffff1673ffffffffffffffffffffffffffffffffffffffff16815260200190815260200160002054116105ba576040517f08c379a00000000000000000000000000000000000000000000000000000000081526004016105b19061133c565b60405180910390fd5b6000805b8251811015610602578281815181106105da576105d9611167565b5b6020026020010151826105ed9190611133565b915080806105fa90611196565b9150506105be565b5080600160008673ffffffffffffffffffffffffffffffffffffffff1673ffffffffffffffffffffffffffffffffffffffff168152602001908152602001600020541015610685576040517f08c379a000000000000000000000000000000000000000000000000000000000815260040161067c906113a8565b60405180910390fd5b60005b8351811015610757578473ffffffffffffffffffffffffffffffffffffffff1663a9059cbb8583815181106106c0576106bf611167565b5b60200260200101518584815181106106db576106da611167565b5b60200260200101516040518363ffffffff1660e01b81526004016107009291906111de565b6020604051808303816000875af115801561071f573d6000803e3d6000fd5b505050506040513d601f19601f8201168201806040525081019061074391906110d7565b50808061074f90611196565b915050610688565b5080600160008673ffffffffffffffffffffffffffffffffffffffff1673ffffffffffffffffffffffffffffffffffffffff16815260200190815260200160002060008282546107a791906113c8565b925050819055508373ffffffffffffffffffffffffffffffffffffffff167faa165af78279844ab22a74108007b5fae041c48203f6472ba69ba4ad77f61a818285516040516107f79291906113fc565b60405180910390a250505050565b6002818154811061081557600080fd5b906000526020600020016000915054906101000a900473ffffffffffffffffffffffffffffffffffffffff1681565b606060028054806020026020016040519081016040528092919081815260200182805480156108c857602002820191906000526020600020905b8160009054906101000a900473ffffffffffffffffffffffffffffffffffffffff1673ffffffffffffffffffffffffffffffffffffffff168152602001906001019080831161087e575b5050505050905090565b60008054906101000a900473ffffffffffffffffffffffffffffffffffffffff1673ffffffffffffffffffffffffffffffffffffffff163373ffffffffffffffffffffffffffffffffffffffff1614610960576040517f08c379a000000000000000000000000000000000000000000000000000000000815260040161095790611264565b60405180910390fd5b80600160008473ffffffffffffffffffffffffffffffffffffffff1673ffffffffffffffffffffffffffffffffffffffff1681526020019081526020016000205410156109e2576040517f08c379a00000000000000000000000000000000000000000000000000000000081526004016109d990611471565b60405180910390fd5b8173ffffffffffffffffffffffffffffffffffffffff1663a9059cbb60008054906101000a900473ffffffffffffffffffffffffffffffffffffffff16836040518363ffffffff1660e01b8152600401610a3d9291906111de565b6020604051808303816000875af1158015610a5c573d6000803e3d6000fd5b505050506040513d601f19601f82011682018060405250810190610a8091906110d7565b5080600160008473ffffffffffffffffffffffffffffffffffffffff1673ffffffffffffffffffffffffffffffffffffffff1681526020019081526020016000206000828254610ad091906113c8565b9250508190555060008054906101000a900473ffffffffffffffffffffffffffffffffffffffff1673ffffffffffffffffffffffffffffffffffffffff167fa92ff919b850e4909ab2261d907ef955f11bc1716733a6cbece38d163a69af8a8383604051610b3f9291906111de565b60405180910390a25050565b6000604051905090565b600080fd5b600080fd5b600073ffffffffffffffffffffffffffffffffffffffff82169050919050565b6000610b8a82610b5f565b9050919050565b610b9a81610b7f565b8114610ba557600080fd5b50565b600081359050610bb781610b91565b92915050565b600060208284031215610bd357610bd2610b55565b5b6000610be184828501610ba8565b91505092915050565b6000819050919050565b610bfd81610bea565b82525050565b6000602082019050610c186000830184610bf4565b92915050565b610c2781610bea565b8114610c3257600080fd5b50565b600081359050610c4481610c1e565b92915050565b60008060408385031215610c6157610c60610b55565b5b6000610c6f85828601610ba8565b9250506020610c8085828601610c35565b9150509250929050565b610c9381610b7f565b82525050565b6000602082019050610cae6000830184610c8a565b92915050565b600080fd5b6000601f19601f8301169050919050565b7f4e487b7100000000000000000000000000000000000000000000000000000000600052604160045260246000fd5b610d0282610cb9565b810181811067ffffffffffffffff82111715610d2157610d20610cca565b5b80604052505050565b6000610d34610b4b565b9050610d408282610cf9565b919050565b600067ffffffffffffffff821115610d6057610d5f610cca565b5b602082029050602081019050919050565b600080fd5b6000610d89610d8484610d45565b610d2a565b90508083825260208201905060208402830185811115610dac57610dab610d71565b5b835b81811015610dd55780610dc18882610ba8565b845260208401935050602081019050610dae565b5050509392505050565b600082601f830112610df457610df3610cb4565b5b8135610e04848260208601610d76565b91505092915050565b600067ffffffffffffffff821115610e2857610e27610cca565b5b602082029050602081019050919050565b6000610e4c610e4784610e0d565b610d2a565b90508083825260208201905060208402830185811115610e6f57610e6e610d71565b5b835b81811015610e985780610e848882610c35565b845260208401935050602081019050610e71565b5050509392505050565b600082601f830112610eb757610eb6610cb4565b5b8135610ec7848260208601610e39565b91505092915050565b600080600060608486031215610ee957610ee8610b55565b5b6000610ef786828701610ba8565b935050602084013567ffffffffffffffff811115610f1857610f17610b5a565b5b610f2486828701610ddf565b925050604084013567ffffffffffffffff811115610f4557610f44610b5a565b5b610f5186828701610ea2565b9150509250925092565b600060208284031215610f7157610f70610b55565b5b6000610f7f84828501610c35565b91505092915050565b600081519050919050565b600082825260208201905092915050565b6000819050602082019050919050565b610fbd81610b7f565b82525050565b6000610fcf8383610fb4565b60208301905092915050565b6000602082019050919050565b6000610ff382610f88565b610ffd8185610f93565b935061100883610fa4565b8060005b838110156110395781516110208882610fc3565b975061102b83610fdb565b92505060018101905061100c565b5085935050505092915050565b600060208201905081810360008301526110608184610fe8565b905092915050565b600060608201905061107d6000830186610c8a565b61108a6020830185610c8a565b6110976040830184610bf4565b949350505050565b60008115159050919050565b6110b48161109f565b81146110bf57600080fd5b50565b6000815190506110d1816110ab565b92915050565b6000602082840312156110ed576110ec610b55565b5b60006110fb848285016110c2565b91505092915050565b7f4e487b7100000000000000000000000000000000000000000000000000000000600052601160045260246000fd5b600061113e82610bea565b915061114983610bea565b925082820190508082111561116157611160611104565b5b92915050565b7f4e487b7100000000000000000000000000000000000000000000000000000000600052603260045260246000fd5b60006111a182610bea565b91507fffffffffffffffffffffffffffffffffffffffffffffffffffffffffffffffff82036111d3576111d2611104565b5b600182019050919050565b60006040820190506111f36000830185610c8a565b6112006020830184610bf4565b9392505050565b600082825260208201905092915050565b7f4f6e6c79206f776e657200000000000000000000000000000000000000000000600082015250565b600061124e600a83611207565b915061125982611218565b602082019050919050565b6000602082019050818103600083015261127d81611241565b9050919050565b7f417272617973206c656e677468206d69736d6174636800000000000000000000600082015250565b60006112ba601683611207565b91506112c582611284565b602082019050919050565b600060208201905081810360008301526112e9816112ad565b9050919050565b7f4e6f2062616c616e636520666f7220746f6b656e000000000000000000000000600082015250565b6000611326601483611207565b9150611331826112f0565b602082019050919050565b6000602082019050818103600083015261135581611319565b9050919050565b7f496e73756666696369656e742066756e64730000000000000000000000000000600082015250565b6000611392601283611207565b915061139d8261135c565b602082019050919050565b600060208201905081810360008301526113c181611385565b9050919050565b60006113d382610bea565b91506113de83610bea565b92508282039050818111156113f6576113f5611104565b5b92915050565b60006040820190506114116000830185610bf4565b61141e6020830184610bf4565b9392505050565b7f496e73756666696369656e742062616c616e6365000000000000000000000000600082015250565b600061145b601483611207565b915061146682611425565b602082019050919050565b6000602082019050818103600083015261148a8161144e565b905091905056fea2646970667358221220b8ebe8b589cc62e88a0320d0d7b132236e686ba16de1b7f9be4b4574c57dee5f64736f6c63430008130033",
  "linkReferences": {},
  "deployedLinkReferences": {}
}